{
  "_format": "hh-sol-artifact-1",
  "contractName": "BookShelf",
  "sourceName": "contracts/Bookshelf.sol",
  "abi": [
    {
      "inputs": [],
      "stateMutability": "payable",
      "type": "constructor"
    },
    {
      "inputs": [],
      "name": "author",
      "outputs": [
        {
          "internalType": "address payable",
          "name": "",
          "type": "address"
        }
      ],
      "stateMutability": "view",
      "type": "function"
    },
    {
      "inputs": [
        {
          "internalType": "uint256",
          "name": "bookId",
          "type": "uint256"
        }
      ],
      "name": "buyBook",
      "outputs": [],
      "stateMutability": "payable",
      "type": "function"
    },
    {
      "inputs": [],
      "name": "getAuthorBooks",
      "outputs": [
        {
          "components": [
            {
              "internalType": "address",
              "name": "author",
              "type": "address"
            },
            {
              "internalType": "uint256",
              "name": "bookId",
              "type": "uint256"
            },
            {
              "internalType": "uint8",
              "name": "price",
              "type": "uint8"
            },
            {
              "internalType": "bytes",
              "name": "title",
              "type": "bytes"
            },
            {
              "internalType": "bytes",
              "name": "author_name",
              "type": "bytes"
            },
            {
              "internalType": "bytes",
              "name": "published_date",
              "type": "bytes"
            },
            {
              "internalType": "bytes",
              "name": "content",
              "type": "bytes"
            },
            {
              "internalType": "enum BookShelf.BookStatus",
              "name": "status",
              "type": "uint8"
            },
            {
              "internalType": "uint256",
              "name": "purchase_counter",
              "type": "uint256"
            }
          ],
          "internalType": "struct BookShelf.BookMetadata[]",
          "name": "",
          "type": "tuple[]"
        }
      ],
      "stateMutability": "view",
      "type": "function"
    },
    {
      "inputs": [],
      "name": "getOwnedBooks",
      "outputs": [
        {
          "components": [
            {
              "internalType": "address",
              "name": "author",
              "type": "address"
            },
            {
              "internalType": "uint256",
              "name": "bookId",
              "type": "uint256"
            },
            {
              "internalType": "uint8",
              "name": "price",
              "type": "uint8"
            },
            {
              "internalType": "bytes",
              "name": "title",
              "type": "bytes"
            },
            {
              "internalType": "bytes",
              "name": "author_name",
              "type": "bytes"
            },
            {
              "internalType": "bytes",
              "name": "published_date",
              "type": "bytes"
            },
            {
              "internalType": "bytes",
              "name": "content",
              "type": "bytes"
            },
            {
              "internalType": "enum BookShelf.BookStatus",
              "name": "status",
              "type": "uint8"
            },
            {
              "internalType": "uint256",
              "name": "purchase_counter",
              "type": "uint256"
            }
          ],
          "internalType": "struct BookShelf.BookMetadata[]",
          "name": "",
          "type": "tuple[]"
        }
      ],
      "stateMutability": "view",
      "type": "function"
    },
    {
      "inputs": [
        {
          "internalType": "string",
          "name": "title_",
          "type": "string"
        },
        {
          "internalType": "string",
          "name": "content_",
          "type": "string"
        },
        {
          "internalType": "string",
          "name": "authorname_",
          "type": "string"
        },
        {
          "internalType": "string",
          "name": "date_",
          "type": "string"
        },
        {
          "internalType": "uint256",
          "name": "purchase_counter_",
          "type": "uint256"
        },
        {
          "internalType": "uint8",
          "name": "price_",
          "type": "uint8"
        },
        {
          "internalType": "enum BookShelf.BookStatus",
          "name": "bookstatus_",
          "type": "uint8"
        }
      ],
      "name": "publishBook",
      "outputs": [],
      "stateMutability": "nonpayable",
      "type": "function"
    }
  ],
  "bytecode": "0x608060405233600260006101000a81548173ffffffffffffffffffffffffffffffffffffffff021916908373ffffffffffffffffffffffffffffffffffffffff160217905550611cb6806100546000396000f3fe60806040526004361061004a5760003560e01c806313da26ea1461004f57806316d1d9411461007a5780636ee26566146100a5578063a6c3e6b9146100c1578063c8b237c2146100ec575b600080fd5b34801561005b57600080fd5b50610064610115565b6040516100719190611392565b60405180910390f35b34801561008657600080fd5b5061008f6105fe565b60405161009c9190611392565b60405180910390f35b6100bf60048036038101906100ba91906113f4565b6109c6565b005b3480156100cd57600080fd5b506100d6610c99565b6040516100e39190611442565b60405180910390f35b3480156100f857600080fd5b50610113600480360381019061010e91906115e3565b610cbf565b005b60606000600160003373ffffffffffffffffffffffffffffffffffffffff1673ffffffffffffffffffffffffffffffffffffffff1681526020019081526020016000208054806020026020016040519081016040528092919081815260200182805480156101a257602002820191906000526020600020905b81548152602001906001019080831161018e575b505050505090506000815167ffffffffffffffff8111156101c6576101c5611467565b5b6040519080825280602002602001820160405280156101ff57816020015b6101ec611002565b8152602001906001900390816101e45790505b50905060005b82518110156105f557600080600260009054906101000a900473ffffffffffffffffffffffffffffffffffffffff1673ffffffffffffffffffffffffffffffffffffffff1673ffffffffffffffffffffffffffffffffffffffff1681526020019081526020016000206001848381518110610283576102826116f5565b5b60200260200101516102959190611753565b815481106102a6576102a56116f5565b5b9060005260206000209060090201604051806101200160405290816000820160009054906101000a900473ffffffffffffffffffffffffffffffffffffffff1673ffffffffffffffffffffffffffffffffffffffff1673ffffffffffffffffffffffffffffffffffffffff168152602001600182015481526020016002820160009054906101000a900460ff1660ff1660ff16815260200160038201805461034d906117b6565b80601f0160208091040260200160405190810160405280929190818152602001828054610379906117b6565b80156103c65780601f1061039b576101008083540402835291602001916103c6565b820191906000526020600020905b8154815290600101906020018083116103a957829003601f168201915b505050505081526020016004820180546103df906117b6565b80601f016020809104026020016040519081016040528092919081815260200182805461040b906117b6565b80156104585780601f1061042d57610100808354040283529160200191610458565b820191906000526020600020905b81548152906001019060200180831161043b57829003601f168201915b50505050508152602001600582018054610471906117b6565b80601f016020809104026020016040519081016040528092919081815260200182805461049d906117b6565b80156104ea5780601f106104bf576101008083540402835291602001916104ea565b820191906000526020600020905b8154815290600101906020018083116104cd57829003601f168201915b50505050508152602001600682018054610503906117b6565b80601f016020809104026020016040519081016040528092919081815260200182805461052f906117b6565b801561057c5780601f106105515761010080835404028352916020019161057c565b820191906000526020600020905b81548152906001019060200180831161055f57829003601f168201915b505050505081526020016007820160009054906101000a900460ff1660018111156105aa576105a96111ab565b5b60018111156105bc576105bb6111ab565b5b81526020016008820154815250508282815181106105dd576105dc6116f5565b5b60200260200101819052508080600101915050610205565b50809250505090565b6060600080600260009054906101000a900473ffffffffffffffffffffffffffffffffffffffff1673ffffffffffffffffffffffffffffffffffffffff1673ffffffffffffffffffffffffffffffffffffffff168152602001908152602001600020805480602002602001604051908101604052809291908181526020016000905b828210156109bd5783829060005260206000209060090201604051806101200160405290816000820160009054906101000a900473ffffffffffffffffffffffffffffffffffffffff1673ffffffffffffffffffffffffffffffffffffffff1673ffffffffffffffffffffffffffffffffffffffff168152602001600182015481526020016002820160009054906101000a900460ff1660ff1660ff168152602001600382018054610731906117b6565b80601f016020809104026020016040519081016040528092919081815260200182805461075d906117b6565b80156107aa5780601f1061077f576101008083540402835291602001916107aa565b820191906000526020600020905b81548152906001019060200180831161078d57829003601f168201915b505050505081526020016004820180546107c3906117b6565b80601f01602080910402602001604051908101604052809291908181526020018280546107ef906117b6565b801561083c5780601f106108115761010080835404028352916020019161083c565b820191906000526020600020905b81548152906001019060200180831161081f57829003601f168201915b50505050508152602001600582018054610855906117b6565b80601f0160208091040260200160405190810160405280929190818152602001828054610881906117b6565b80156108ce5780601f106108a3576101008083540402835291602001916108ce565b820191906000526020600020905b8154815290600101906020018083116108b157829003601f168201915b505050505081526020016006820180546108e7906117b6565b80601f0160208091040260200160405190810160405280929190818152602001828054610913906117b6565b80156109605780601f1061093557610100808354040283529160200191610960565b820191906000526020600020905b81548152906001019060200180831161094357829003601f168201915b505050505081526020016007820160009054906101000a900460ff16600181111561098e5761098d6111ab565b5b60018111156109a05761099f6111ab565b5b815260200160088201548152505081526020019060010190610680565b50505050905090565b600081118015610a395750600080600260009054906101000a900473ffffffffffffffffffffffffffffffffffffffff1673ffffffffffffffffffffffffffffffffffffffff1673ffffffffffffffffffffffffffffffffffffffff168152602001908152602001600020805490508111155b610a78576040517f08c379a0000000000000000000000000000000000000000000000000000000008152600401610a6f90611844565b60405180910390fd5b6000806000600260009054906101000a900473ffffffffffffffffffffffffffffffffffffffff1673ffffffffffffffffffffffffffffffffffffffff1673ffffffffffffffffffffffffffffffffffffffff168152602001908152602001600020600183610ae79190611753565b81548110610af857610af76116f5565b5b90600052602060002090600902019050600180811115610b1b57610b1a6111ab565b5b8160070160009054906101000a900460ff166001811115610b3f57610b3e6111ab565b5b14610b7f576040517f08c379a0000000000000000000000000000000000000000000000000000000008152600401610b76906118b0565b60405180910390fd5b8060020160009054906101000a900460ff1660ff16341015610bd6576040517f08c379a0000000000000000000000000000000000000000000000000000000008152600401610bcd90611942565b60405180910390fd5b600260009054906101000a900473ffffffffffffffffffffffffffffffffffffffff1673ffffffffffffffffffffffffffffffffffffffff166108fc349081150290604051600060405180830381858888f19350505050158015610c3e573d6000803e3d6000fd5b506001816008016000828254610c549190611962565b925050819055506001816008015410610c955760008160070160006101000a81548160ff02191690836001811115610c8f57610c8e6111ab565b5b02179055505b5050565b600260009054906101000a900473ffffffffffffffffffffffffffffffffffffffff1681565b600260009054906101000a900473ffffffffffffffffffffffffffffffffffffffff1673ffffffffffffffffffffffffffffffffffffffff163373ffffffffffffffffffffffffffffffffffffffff1614610d4f576040517f08c379a0000000000000000000000000000000000000000000000000000000008152600401610d46906119e2565b60405180910390fd5b600080806000600260009054906101000a900473ffffffffffffffffffffffffffffffffffffffff1673ffffffffffffffffffffffffffffffffffffffff1673ffffffffffffffffffffffffffffffffffffffff168152602001908152602001600020805490509050600181610dc59190611962565b915060008503610dd457600092505b6000604051806101200160405280600260009054906101000a900473ffffffffffffffffffffffffffffffffffffffff1673ffffffffffffffffffffffffffffffffffffffff1681526020018481526020018660ff1681526020018b81526020018981526020018881526020018a8152602001856001811115610e5a57610e596111ab565b5b8152602001878152509050600080600260009054906101000a900473ffffffffffffffffffffffffffffffffffffffff1673ffffffffffffffffffffffffffffffffffffffff1673ffffffffffffffffffffffffffffffffffffffff16815260200190815260200160002081908060018154018082558091505060019003906000526020600020906009020160009091909190915060008201518160000160006101000a81548173ffffffffffffffffffffffffffffffffffffffff021916908373ffffffffffffffffffffffffffffffffffffffff1602179055506020820151816001015560408201518160020160006101000a81548160ff021916908360ff1602179055506060820151816003019081610f769190611bae565b506080820151816004019081610f8c9190611bae565b5060a0820151816005019081610fa29190611bae565b5060c0820151816006019081610fb89190611bae565b5060e08201518160070160006101000a81548160ff02191690836001811115610fe457610fe36111ab565b5b02179055506101008201518160080155505050505050505050505050565b604051806101200160405280600073ffffffffffffffffffffffffffffffffffffffff16815260200160008152602001600060ff168152602001606081526020016060815260200160608152602001606081526020016000600181111561106c5761106b6111ab565b5b8152602001600081525090565b600081519050919050565b600082825260208201905092915050565b6000819050602082019050919050565b600073ffffffffffffffffffffffffffffffffffffffff82169050919050565b60006110d0826110a5565b9050919050565b6110e0816110c5565b82525050565b6000819050919050565b6110f9816110e6565b82525050565b600060ff82169050919050565b611115816110ff565b82525050565b600081519050919050565b600082825260208201905092915050565b60005b8381101561115557808201518184015260208101905061113a565b60008484015250505050565b6000601f19601f8301169050919050565b600061117d8261111b565b6111878185611126565b9350611197818560208601611137565b6111a081611161565b840191505092915050565b7f4e487b7100000000000000000000000000000000000000000000000000000000600052602160045260246000fd5b600281106111eb576111ea6111ab565b5b50565b60008190506111fc826111da565b919050565b600061120c826111ee565b9050919050565b61121c81611201565b82525050565b60006101208301600083015161123b60008601826110d7565b50602083015161124e60208601826110f0565b506040830151611261604086018261110c565b50606083015184820360608601526112798282611172565b915050608083015184820360808601526112938282611172565b91505060a083015184820360a08601526112ad8282611172565b91505060c083015184820360c08601526112c78282611172565b91505060e08301516112dc60e0860182611213565b506101008301516112f16101008601826110f0565b508091505092915050565b60006113088383611222565b905092915050565b6000602082019050919050565b600061132882611079565b6113328185611084565b93508360208202850161134485611095565b8060005b85811015611380578484038952815161136185826112fc565b945061136c83611310565b925060208a01995050600181019050611348565b50829750879550505050505092915050565b600060208201905081810360008301526113ac818461131d565b905092915050565b6000604051905090565b600080fd5b600080fd5b6113d1816110e6565b81146113dc57600080fd5b50565b6000813590506113ee816113c8565b92915050565b60006020828403121561140a576114096113be565b5b6000611418848285016113df565b91505092915050565b600061142c826110a5565b9050919050565b61143c81611421565b82525050565b60006020820190506114576000830184611433565b92915050565b600080fd5b600080fd5b7f4e487b7100000000000000000000000000000000000000000000000000000000600052604160045260246000fd5b61149f82611161565b810181811067ffffffffffffffff821117156114be576114bd611467565b5b80604052505050565b60006114d16113b4565b90506114dd8282611496565b919050565b600067ffffffffffffffff8211156114fd576114fc611467565b5b61150682611161565b9050602081019050919050565b82818337600083830152505050565b6000611535611530846114e2565b6114c7565b90508281526020810184848401111561155157611550611462565b5b61155c848285611513565b509392505050565b600082601f8301126115795761157861145d565b5b8135611589848260208601611522565b91505092915050565b61159b816110ff565b81146115a657600080fd5b50565b6000813590506115b881611592565b92915050565b600281106115cb57600080fd5b50565b6000813590506115dd816115be565b92915050565b600080600080600080600060e0888a031215611602576116016113be565b5b600088013567ffffffffffffffff8111156116205761161f6113c3565b5b61162c8a828b01611564565b975050602088013567ffffffffffffffff81111561164d5761164c6113c3565b5b6116598a828b01611564565b965050604088013567ffffffffffffffff81111561167a576116796113c3565b5b6116868a828b01611564565b955050606088013567ffffffffffffffff8111156116a7576116a66113c3565b5b6116b38a828b01611564565b94505060806116c48a828b016113df565b93505060a06116d58a828b016115a9565b92505060c06116e68a828b016115ce565b91505092959891949750929550565b7f4e487b7100000000000000000000000000000000000000000000000000000000600052603260045260246000fd5b7f4e487b7100000000000000000000000000000000000000000000000000000000600052601160045260246000fd5b600061175e826110e6565b9150611769836110e6565b925082820390508181111561178157611780611724565b5b92915050565b7f4e487b7100000000000000000000000000000000000000000000000000000000600052602260045260246000fd5b600060028204905060018216806117ce57607f821691505b6020821081036117e1576117e0611787565b5b50919050565b600082825260208201905092915050565b7f496e76616c696420626f6f6b2049440000000000000000000000000000000000600082015250565b600061182e600f836117e7565b9150611839826117f8565b602082019050919050565b6000602082019050818103600083015261185d81611821565b9050919050565b7f426f6f6b206973206e6f7420617661696c61626c6520666f722073616c650000600082015250565b600061189a601e836117e7565b91506118a582611864565b602082019050919050565b600060208201905081810360008301526118c98161188d565b9050919050565b7f496e73756666696369656e742066756e647320746f206275792074686520626f60008201527f6f6b000000000000000000000000000000000000000000000000000000000000602082015250565b600061192c6022836117e7565b9150611937826118d0565b604082019050919050565b6000602082019050818103600083015261195b8161191f565b9050919050565b600061196d826110e6565b9150611978836110e6565b92508282019050808211156119905761198f611724565b5b92915050565b7f4f6e6c7920617574686f722063616e207075626c69736820626f6f6b73000000600082015250565b60006119cc601d836117e7565b91506119d782611996565b602082019050919050565b600060208201905081810360008301526119fb816119bf565b9050919050565b60008190508160005260206000209050919050565b60006020601f8301049050919050565b600082821b905092915050565b600060088302611a647fffffffffffffffffffffffffffffffffffffffffffffffffffffffffffffffff82611a27565b611a6e8683611a27565b95508019841693508086168417925050509392505050565b6000819050919050565b6000611aab611aa6611aa1846110e6565b611a86565b6110e6565b9050919050565b6000819050919050565b611ac583611a90565b611ad9611ad182611ab2565b848454611a34565b825550505050565b600090565b611aee611ae1565b611af9818484611abc565b505050565b5b81811015611b1d57611b12600082611ae6565b600181019050611aff565b5050565b601f821115611b6257611b3381611a02565b611b3c84611a17565b81016020851015611b4b578190505b611b5f611b5785611a17565b830182611afe565b50505b505050565b600082821c905092915050565b6000611b8560001984600802611b67565b1980831691505092915050565b6000611b9e8383611b74565b9150826002028217905092915050565b611bb78261111b565b67ffffffffffffffff811115611bd057611bcf611467565b5b611bda82546117b6565b611be5828285611b21565b600060209050601f831160018114611c185760008415611c06578287015190505b611c108582611b92565b865550611c78565b601f198416611c2686611a02565b60005b82811015611c4e57848901518255600182019150602085019450602081019050611c29565b86831015611c6b5784890151611c67601f891682611b74565b8355505b6001600288020188555050505b50505050505056fea264697066735822122041b08066d862bd500acb784267df820a34bcd27fbd7cefd8558547fd7dd50a5264736f6c63430008180033",
  "linkReferences": {},
  "deployedLinkReferences": {}
}